S0190000534654505F4254484F4D455F544D5048554D2E73333746
S31508000000C00A00204B70030857700308577003088E
S315080000103DEF020857700308577003085770030826
S31508000020577003085770030857700308577003087A
S315080000305770030857700308854F0308577003085D
S31508000040577003085770030857700308577003085A
S31508000050577003085770030857700308577003084A
S3150800006057700308854401087B4401085770030844
S31508000070577003085770030857700308577003082A
S31508000080577003085770030857700308577003081A
S31508000090577003082D25030857700308577003087F
S315080000A057700308574C03083F4C0308577003085A
S315080000B05770030837210208632802083B280208FC
S315080000C03928020849220208612802083D28020840
S315080000D0412802083F280208C5280208972802086E
S315080000E057700308577003085770030857700308BA
S315080000F05F420108577003085770030857700308D2
S315080001005770030857700308577003085770030899
S315080001105770030857700308577003085770030889
S315080001205770030857700308577003085770030879
S315080001305770030857700308577003085770030869
S31508000140577003085770030857700308AD960008E0
S315080001502D48020857700308CD6E0308D16E0308B0
S315080001605770030857700308577003085770030839
S31508000170401E00D0FCE770474254486F6D652076F4
S3150800018032202D2048756D696469747920616E6422
S315080001902054656D7065726174757265204D6F6E59
S315080001A069746F720D0A00003D3D3D3D3D3D3D3D84
S315080001B0204170706C69636174696F6E20696E693D
S315080001C07469616C697A6174696F6E203D3D3D3D65
S315080001D03D3D3D3D3D0D0A003D3D3D3D3D3D3D3DE1
S315080001E03D3D3D3D3D3D3D205374617274206D6536
S315080001F061737572696E67203D3D3D3D3D3D3D3DF0
S315080002003D3D3D3D3D3D3D0D0A000000736C5F627E
S31508000210745F6F6E5F6576656E7400005B435D2084
S315080002200000000025733A2564203A25733A200019
S31508000230453A5C53696D706C696369747953747572
S3150800024064696F5F563930305C50726F64657369E4
S3150800025076655C534654505F4254484F4D455F544B
S315080002604D5048554D5C6170702E6300537461742F
S3150800027075733A202573203D203078253034782050
S3150800028000000000417373657274696F6E206661C1
S31508000290696C6564000000004452563A424D453286
S315080002A038302C494E49540D0A0000004452563A3B
S315080002B0424D453238302C4144443D253032582C85
S315080002C0494E49204F4B0D0A000000004452563A49
S315080002D0424D453238302C4144443D253032582C65
S315080002E04552520D0A00000020307837360D0A00B4
S315080002F04452563A4343533831312C4144443D2500
S315080003003032582C494E49204F4B0D0A0000000048
S315080003104452563A4343533831312C4144443D25DF
S315080003203032582C4552520D0A00000020307835DC
S31508000330410D0A0054656D70657261747572653A8F
S3150800034020256C64202563430D0A000048756D69F5
S31508000350646974793A20256C6425250D0A00000025
S31508000360507265737572653A20256C64206D42611A
S31508000370720D0A00434F323A2025642070706D0DC5
S315080003800A00000054564F433A20256420707062D4
S315080003900D0A000000000000770000004145532DBB
S315080003A03132382D454342004145532D3139322DDE
S315080003B0454342004145532D3235362D45434200CB
S315080003C04145532D3132382D43434D004145532D78
S315080003D03139322D43434D004145532D3235362DA3
S315080003E043434D004145532D3132382D43434D2A61
S315080003F02D4E4F2D544147004145532D3139322D4D
S3150800040043434D2A2D4E4F2D544147004145532D08
S315080004103235362D43434D2A2D4E4F2D5441470034
S3150800042002000000F36F030805700308FD6F030858
S315080004300D7003082B7003080201000080000000FD
S315080004409C030008000000000000000010000000E7
S315080004502004000803010000C0000000A8030008EB
S315080004600000000000000000100000002004000842
S315080004700401000000010000B403000800000000A9
S315080004800000000010000000200400080200000020
S31508000490000000003D7003083D700308C76F03089D
S315080004A0E16F03082608000080000000C00300086A
S315080004B00C00000001000000100000008C04000879
S315080004C027080000C0000000CC0300080C0000004C
S315080004D001000000100000008C0400082808000035
S315080004E000010000D80300080C000000010000000D
S315080004F0100000008C040008290900008000000094
S31508000500E40300080C0000000100000010000000D1
S315080005108C0400082A090000C0000000F80300083F
S315080005200C00000001000000100000008C04000808
S315080005302B090000000100000C0400080C00000054
S3150800054001000000100000008C04000802000000F2
S3150800055038040008030000005404000804000000E2
S315080005607004000826000000A40400082700000004
S31508000570C004000828000000DC0400082900000068
S31508000580F80400082A000000140500082B000000E3
S3150800059030050008000000000000000000001030D0
S315080005A0000000000000000000000000000010032A
S315080005B00000000000000000000000001E0000030C
S315080005C0453A5C53696D706C6963697479537475DF
S315080005D064696F5F563930305C53444B735C706C9A
S315080005E06174666F726D5C656D6C69625C696E6379
S315080005F05C656D5F6770696F2E680000453A5C53ED
S31508000600696D706C696369747953747564696F5F31
S31508000610563930305C53444B735C706C6174666F4A
S31508000620726D5C656D6C69625C696E635C656D5F55
S315080006306275732E68000000453A5C53696D706CEC
S31508000640696369747953747564696F5F56393030B4
S315080006505C53444B735C706C6174666F726D5C6559
S315080006606D6C69625C7372635C656D5F636D752E34
S3150800067063000000453A5C53696D706C6963697480
S315080006807953747564696F5F563930305C53444BDF
S31508000690735C706C6174666F726D5C656D6C6962B3
S315080006A05C7372635C656D5F636F72652E630000D1
S315080006B0453A5C53696D706C6963697479537475EE
S315080006C064696F5F563930305C53444B735C706CA9
S315080006D06174666F726D5C656D6C69625C7372637A
S315080006E05C656D5F656D752E63000000453A5C5369
S315080006F0696D706C696369747953747564696F5F41
S31508000700563930305C53444B735C706C6174666F59
S31508000710726D5C656D6C69625C696E635C656D5F64
S315080007206275732E68000000453A5C53696D706CFB
S31508000730696369747953747564696F5F56393030C3
S315080007405C53444B735C706C6174666F726D5C6568
S315080007506D6C69625C696E635C656D5F6770696F15
S315080007602E680000453A5C53696D706C696369745C
S315080007707953747564696F5F563930305C53444BEE
S31508000780735C706C6174666F726D5C656D6C6962C2
S315080007905C7372635C656D5F6770696F2E630000DA
S315080007A0453A5C53696D706C6963697479537475FD
S315080007B064696F5F563930305C53444B735C706CB8
S315080007C06174666F726D5C656D6C69625C696E6397
S315080007D05C656D5F6275732E68000000453A5C5370
S315080007E0696D706C696369747953747564696F5F50
S315080007F0563930305C53444B735C706C6174666F69
S31508000800726D5C656D6C69625C7372635C656D5F65
S315080008106932632E6300000008091108453A5C53E3
S31508000820696D706C696369747953747564696F5F0F
S31508000830563930305C53444B735C706C6174666F28
S31508000840726D5C656D6C69625C696E635C656D5F33
S315080008506275732E68000000453A5C53696D706CCA
S31508000860696369747953747564696F5F5639303092
S315080008705C53444B735C706C6174666F726D5C6537
S315080008806D6C69625C7372635C656D5F6C646D61E7
S315080008902E630000453A5C53696D706C6963697430
S315080008A07953747564696F5F563930305C53444BBD
S315080008B0735C706C6174666F726D5C656D6C696291
S315080008C05C7372635C656D5F6D73632E6300000015
S315080008D0453A5C53696D706C6963697479537475CC
S315080008E064696F5F563930305C53444B735C706C87
S315080008F06174666F726D5C656D6C69625C73726358
S315080009005C656D5F7072732E63000000453A5C5338
S31508000910696D706C696369747953747564696F5F1E
S31508000920563930305C53444B735C706C6174666F37
S31508000930726D5C656D6C69625C7372635C656D5F34
S3150800094073652E6300000000453A5C53696D706C50
S31508000950696369747953747564696F5F56393030A1
S315080009605C53444B735C706C6174666F726D5C6546
S315080009706D6C69625C7372635C656D5F75736172D9
S31508000980742E6300002801280328002A012A292A30
S31508000990242A272A262A232A052A2A2B292B02290A
S315080009A0010000000108FFFF00000000C26F0308F5
S315080009B0020002000108FFFF0500000020000A00EF
S315080009C003000A000008FFFF01000000580B002082
S315080009D004000D000308FFFF0300000002000000EA
S315080009E0050002000108FFFF0500000002000B00D9
S315080009F006000B000108FFFF01000000400B002065
S31508000A00070002000108FFFF050000000A000C00AD
S31508000A1008000C000308FFFF01000000380B002047
S31508000A20090000000108FFFF00000000BE6F030870
S31508000A300A0002000108FFFF050000000A00030083
S31508000A400B0003000308FFFF01000000240B002031
S31508000A500C0002000108FFFF050000000200040068
S31508000A600D0004000108FFFF00000000BA6F03082C
S31508000A700E0000000108FFFF00000000B66F030823
S31508000A800F0002000108FFFF050000000200050034
S31508000A90100005000108FFFF00000000D26D0008E5
S31508000AA0110002000108FFFF050000000200060011
S31508000AB0120006000108FFFF01000000140B0020C9
S31508000AC0130002000108FFFF0500000002000700EE
S31508000AD0140007000108FFFF01000000080B0020B2
S31508000AE0150002000108FFFF0500000002000800CB
S31508000AF0160008000108FFFF01000000FC0A00209C
S31508000B00170002000108FFFF0500000002000900A7
S31508000B10180009000108FFFF01000000EC0A002088
S31508000B20A009000818001800840900080E000E0025
S31508000B30922F0108000000000100FFFFFFFF0000E0
S31508000B40D94C0308E34C0308EB4C03080D4D030886
S31508000B50794D03080F4D0308454D03082C00000086
S31508000B60453A5C53696D706C696369747953747539
S31508000B7064696F5F563930305C53444B735C706CF4
S31508000B806174666F726D5C706572697068657261B2
S31508000B906C5C7372635C7065726970686572616CAF
S31508000BA05F7379737274632E6300000050534100BB
S31508000BB04B4559000000000001000000000000003D
S31508000BC000000000010000001000002000000000E6
S31508000BD00100000010000020453A5C53696D706CF6
S31508000BE0696369747953747564696F5F563930300F
S31508000BF05C50726F6465736976655C534654505FE2
S31508000C004254484F4D455F544D5048554D5C6175AB
S31508000C10746F67656E5C736C5F626C7565746F6F15
S31508000C2074682E6300000000000000004E0C0000EF
S31508000C300000000000000000200B00080000000073
S31508000C40000000000400000000000000E2FF500061
S31508000C502419000800000000001900080000000020
S31508000C60481900080000000060180008E231010871
S31508000C70A0180008B0140008BC18000800000000FE
S31508000C8000000000000000002C19000808190008E0
S31508000C9068180008EC180008A8180008C418000806
S31508000CA0D818000800000000453A5C53696D706C5E
S31508000CB0696369747953747564696F5F563930303E
S31508000CC05C53444B735C706C6174666F726D5C65E3
S31508000CD06D6C69625C696E635C656D5F6275732EC7
S31508000CE06800000001031001010903000B00000061
S31508000CF00C00000003000000000020200000000097
S31508000D00020000003C3C3C0000000000000000001F
S31508000D1000000000736C5F676174745F73657276B8
S31508000D206963655F6465766963655F696E666F7238
S31508000D306D6174696F6E5F6F6E5F6576656E740060
S31508000D404252443237303441000000005B435D2094
S31508000D500000000025733A2564203A25733A2000DE
S31508000D60453A5C53696D706C696369747953747537
S31508000D7064696F5F563930305C50726F64657369A9
S31508000D8076655C534654505F4254484F4D455F5410
S31508000D904D5048554D5C736C5F676174745F73653D
S31508000DA072766963655F6465766963655F696E66B1
S31508000DB06F726D6174696F6E2E630000537461748F
S31508000DC075733A202573203D2030782530347820F5
S31508000DD000000000417373657274696F6E20666166
S31508000DE0696C656400000000342E332E3200000062
S31508000DF0453A5C53696D706C6963697479537475A7
S31508000E0064696F5F563930305C53444B735C706C61
S31508000E106174666F726D5C736572766963655C682A
S31508000E2066786F5F6D616E616765725C7372635C2D
S31508000E30736C5F6866786F5F6D616E616765722E49
S31508000E4063000000453A5C53696D706C69636974A8
S31508000E507953747564696F5F563930305C53444B07
S31508000E60735C706C6174666F726D5C656D6C6962DB
S31508000E705C696E635C656D5F6770696F2E680000FC
S31508000E80453A5C53696D706C696369747953747516
S31508000E9064696F5F563930305C53444B735C706CD1
S31508000EA06174666F726D5C6472697665725C6932CC
S31508000EB06373706D5C7372635C736C5F69326373C2
S31508000EC0706D2E6300000000453A5C53696D706CC6
S31508000ED0696369747953747564696F5F563930301C
S31508000EE05C53444B735C706C6174666F726D5C65C1
S31508000EF06D6C69625C696E635C656D5F6770696F6E
S31508000F002E680000050000000000000000C2010075
S31508000F1000050000001000000000000000000000AE
S31508000F20453A5C53696D706C696369747953747575
S31508000F3064696F5F563930305C50726F64657369E7
S31508000F4076655C534654505F4254484F4D455F544E
S31508000F504D5048554D5C6175746F67656E5C736C72
S31508000F605F696F73747265616D5F696E69745F75C9
S31508000F70736172745F696E7374616E6365732E63F1
S31508000F800000000000C0055029000000000500060A
S31508000F9000000000000000000000040024C0055006
S31508000FA00000000000000000090A00002C200020B4
S31508000FB08100000000010000453A5C53696D706CC1
S31508000FC0696369747953747564696F5F563930302B
S31508000FD05C53444B735C706C6174666F726D5C73C2
S31508000FE06572766963655C696F73747265616D5C59
S31508000FF07372635C736C5F696F73747265616D5F3E
S3150800100072657461726765745F737464696F2E6361
S3150800101000000000453A5C53696D706C6963697439
S315080010207953747564696F5F563930305C53444B35
S31508001030735C706C6174666F726D5C7365727669E9
S3150800104063655C696F73747265616D5C7372635C0A
S31508001050736C5F696F73747265616D5F75617274C5
S315080010602E630000453A5C53696D706C6963697458
S315080010707953747564696F5F563930305C53444BE5
S31508001080735C706C6174666F726D5C7365637572A0
S315080010906974795C736C5F636F6D706F6E656E747F
S315080010A05C736C5F6D626564746C735F7375707086
S315080010B06F72745C7372635C736C5F6D6265647483
S315080010C06C732E6300000000453A5C53696D706CC2
S315080010D0696369747953747564696F5F563930301A
S315080010E05C53444B735C706C6174666F726D5C73B1
S315080010F06572766963655C706F7765725F6D616E40
S31508001100616765725C7372635C736C5F706F776539
S31508001110725F6D616E616765722E6300453A5C5356
S31508001120696D706C696369747953747564696F5F06
S31508001130563930305C53444B735C706C6174666F1F
S31508001140726D5C736572766963655C706F776572DC
S315080011505F6D616E616765725C7372635C736C5F09
S31508001160706F7765725F6D616E616765725F6861E2
S315080011706C5F73322E63000002000000006A1800DC
S31508001180000204000000000205000000453A5C5316
S31508001190696D706C696369747953747564696F5F96
S315080011A0563930305C53444B735C706C6174666FAF
S315080011B0726D5C656D6C69625C696E635C656D5FBA
S315080011C06275732E68000000453A5C53696D706C51
S315080011D0696369747953747564696F5F5639303019
S315080011E05C53444B735C706C6174666F726D5C73B0
S315080011F0656375726974795C736C5F636F6D706F24
S315080012006E656E745C73655F6D616E616765725C51
S315080012107372635C736C5F73655F6D616E6167653E
S31508001220722E6300000000000100000000000000AC
S31508001230000000000100000000000000000000009F
S31508001240010000001000002000000000010000005E
S31508001250000000000000000001000000000000007F
S31508001260000000000100000010000020000000003F
S31508001270010000000000000000000000010000005E
S3150800128010000020000000000100000010000020EF
S31508001290000000000100000000000000000000003F
S315080012A0010000000000000000000000010000002E
S315080012B010000020000000000100000010000020BF
S315080012C0000000000100000000000000000000000F
S315080012D001000000000000000000000001000000FE
S315080012E000000000000000000100000010000020BF
S315080012F000000000010000001000002000000000AF
S3150800130001000000000000000000000001000000CD
S31508001310040000200000000000000000000000009B
S315080013200100000000000000453A5C53696D706CCE
S31508001330696369747953747564696F5F56393030B7
S315080013405C53444B735C706C6174666F726D5C655C
S315080013506D6C69625C696E635C656D5F6770696F09
S315080013602E680000453A5C53696D706C6963697450
S315080013707953747564696F5F563930305C53444BE2
S31508001380735C706C6174666F726D5C6472697665A5
S31508001390725C627574746F6E5C7372635C736C5F97
S315080013A073696D706C655F627574746F6E2E630019
S315080013B0B80B00207F570308ED5703086D5803083C
S315080013C083580308E7570308453A5C53696D706C00
S315080013D0696369747953747564696F5F5639303017
S315080013E05C53444B735C706C6174666F726D5C73AE
S315080013F06572766963655C736C65657074696D653D
S31508001400725C7372635C736C5F736C656570746928
S315080014106D65722E630000000100000000000000E8
S315080014200000000000000000453A5C53696D706CCE
S31508001430696369747953747564696F5F56393030B6
S315080014405C53444B735C706C6174666F726D5C635D
S315080014506F6D6D6F6E5C7372635C736C5F736C69D2
S3150800146073742E6300000000453A5C53696D706C16
S31508001470696369747953747564696F5F5639303076
S315080014805C53444B735C706C6174666F726D5C730D
S315080014906572766963655C7564656C61795C73729F
S315080014A0635C736C5F7564656C61792E630000001C
S315080014B00400FB000020000001200000302100206D
S315080014C0000000000400002011680000FFFFFFFF75
S315080014D0FFFFFFFFFFFFFFFFFFFFFFFF000000000A
S315080014E001000000000000000000000000000000ED
S315080014F00000000010000020110800000000000095
S315080015000000000004000020110000000000000098
S3150800151001000000000000000000000000000000BC
S31508001520000000000100000010000000210000007B
S31508001530000000000000000010000000010000008C
S31508001540000000000100000010000000210000005B
S315080015501C150008000000001000001011280000EB
S315080015600000000000000000100000001128000024
S315080015700000000000000000040000001100000048
S315080015800000000000000000000000001108000034
S31508001590000000000100000010000000210000000B
S315080015A000000000010000001000000021000000FB
S315080015B00000000000000000040000001100000008
S315080015C000000000000000000000000011080000F4
S315080015D0453A5C53696D706C6963697479537475BF
S315080015E064696F5F563930305C53444B735C706C7A
S315080015F06174666F726D5C73656375726974795C24
S31508001600736C5F636F6D706F6E656E745C736C5F21
S3150800161070726F746F636F6C5F63727970746F5CEE
S315080016207372635C736C695F726164696F61657319
S315080016305F6D616E6167656D656E742E630000008F
S31508001640FFFFFFFF00000000FFFFFFFFFFFFFFFF98
S31508001650BCE6FAADA7179E84F3B9CAC2FC63255146
S31508001660000000000000000000000000000000006C
S3150800167000000000880000000000000000000000D4
S31508001680000000000000000000000000000000004C
S3150800169000000000880000000000000000000000B4
S315080016A02000008000000000002400000300000065
S315080016B0FC00000000000000000000000000000020
S315080016C02000008000000000002400000300000045
S315080016D0F800000000000000000000000000000004
S315080016E010000000000000000000000103000000D8
S315080016F0FA000000000000000000000000000000E2
S3150800170020000000000000000000000203000000A6
S31508001710F7000000000000000000000000000000C4
S3150800172020000080000000000044000203000000C2
S31508001730FE0000000000000000000000000000009D
S3150800174020000080000000000044000303000000A1
S31508001750FF0000000000000000000000000000007C
S31508001760A0120100A0030106A0020105A0030108BA
S31508001770A0040103A0010401A0050F00A0010F01A8
S31508001780A0050F02A0030F03A0030F04A0020F0970
S31508001790A0025C00A0035C01A0015C022000040119
S315080017A0E7580308200C0403BB5803082001040A61
S315080017B007590308200356008D6C030820025601BA
S315080017C0B96C030820025602DD6C030820000115D7
S315080017D0536D0308C800B6FEFF00DC0028000000B1
S315080017E09800CF08E658FBFF5B00050470A3FEFFD0
S315080017F0350008028EB6FFFF20003F01A80300004F
S315080018001400B700492300000C007600F6260000F5
S3150800181007004700A022000003000E00F710000092
S3150800182010FF72FFA6FFC1FFD2FFDCFFE4FFE9FF4E
S31508001830EEFFF1FFF4FFF6FFF8FFFAFFFBFFFDFFEF
S31508001840000900B4D41700080100000F201800088A
S31508001850EF5F6829E40C000000010102010202039F
S31508001860B55803080000000004000000000000004E
S31508001870000000000000000000000000A0030601B0
S31508001880A00D0600A00A0602A0020604A007060587
S31508001890A0050606A0050607A0020608A00906096F
S315080018A0775B030800000000060000000000000047
S315080018B000000000A95B0308D15B03083D5C030830
S315080018C00000000009000000000000000000000001
S315080018D000000000000000000A00000000000000F0
S315080018E00000000000000000000000005600000094
S315080018F000000000000000000000000000000000DA
S31508001900016D0308000000000F0000000000000041
S31508001910000000000000000000000000A000010414
S31508001920A00101072D6D030800000000010000005A
S315080019300000000000000000000000000000000099
S31508001940000000000000000049B501080000000082
S3150800195020050A02596C03080000000098010000DF
S31508001960B010002062676275665F696E000000004D
S3150800197062676275665F6F757400000062676275FC
S31508001980665F6E6F666C6F77000000006267617055
S315080019906920627566666572730000000080FF7FC5
S315080019A000000080FF7F030204FF000001000080A2
S315080019B0FF7F00000080FF7F03020000D82C00088C
S315080019C0F02C0008082D0008202D0008382D0008E6
S315080019D062675F6D616C6C6F6300000062675F6DC4
S315080019E06573736167652072656365697665727389
S315080019F000000000626762756600000061636C00A3
S31508001A006C6C5F636F6E6E656374696F6E00000061
S31508001A106C6C5F6164765F73657400006761705F04
S31508001A20636F6E74657874006C6C5F76616C69645C
S31508001A3061746F72000000006D6573685F70726F85
S31508001A40765F64620000000062675F6D65737361AC
S31508001A5067650000736F66745F74696D65725F6DA4
S31508001A606573736167650000666F756E6461746996
S31508001A706F6E5F636D6400006C6C5F6164765F73A4
S31508001A80796E63006C6C5F7363616E5F73796E6306
S31508001A90000000006761705F706572696F64696352
S31508001AA05F616476000000006761705F7065726947
S31508001AB06F6469635F73796E630000006C326361FB
S31508001AC0705F636F635F6368616E6E656C000000CC
S31508001AD06D6573685F70726F765F64625F61707060
S31508001AE06B6579006D626564746C735F636F6E74A1
S31508001AF0657874004907CDF614530072FF00010299
S31508001B00030405FF0049725314497207F4010000E3
S31508001B10FA00000096000000640000004B00000078
S31508001B20320000001E000000140000000000000043
S31508001B303C000000940000003C00000096000000F5
S31508001B400000000000000000000000000B0701165E
S31508001B500C00000108080000050108FFFF02FFFF4E
S31508001B600808020204FF010022FFFFFFFFFFFF0330
S31508001B700404FFFFFFFF2A00C800C8008200820095
S31508001B8000000D000300020001000500676174747F
S31508001B9020636F6E6E656374696F6E00FB349B5FBE
S31508001BA0800000800010000000000000335001088B
S31508001BB0B1500108C1500108F75001080D5101083C
S31508001BC06D61010871610108756101087961010893
S31508001BD07D610108116101083B6101084361010843
S31508001BE04F610108496101086B620108A762010893
S31508001BF0C9620108DF62010805630108C7BFBEBEE6
S31508001C00BEB5B5B4B4ABABDCDCDBDBD2D2D1D1C864
S31508001C10C8C8C7BFBEBEBEBDB5B5B4B4B4DCDBDB91
S31508001C20D2D2D2D11B1B16162E2D2D2A29292925AB
S31508001C30242420201F1B1B1B162E2D2D2A2A29295A
S31508001C402524242020201F1B1B1B2D2DBEB5B5B413
S31508001C50B4ABABABAAA2A1A1A1A099999898C7BF0A
S31508001C60BEBEBDB5B5B4B4B4ABABABAAAAA2A1A16E
S31508001C70A1999999000000000303030303020202D5
S31508001C80020202020303020202020101010101012A
S31508001C900000000003030303030202020203030316
S31508001CA00304040404050500000000010101010203
S31508001CB002020203030303030404040404000000ED
S31508001CC001010101070708080303030504040405C5
S31508001CD005050606060707070803020204040403A7
S31508001CE0040505060606060707070202020303039C
S31508001CF0030404040405050505050606060601028F
S31508001D00020202030303030304040404040505058D
S31508001D10050606060C0C0C0C0B0B0B0B0B0B0B0B16
S31508001D200B0B0B0B0B0B0B0B0B0B0C0C0C0C0C0CEF
S31508001D300C0C0C0C0B0B0B0B0B0B0B0B193F0106AE
S31508001D40041001000001010600102700000C000025
S31508001D500000000000000000193F01060410010001
S31508001D600001010600102700000A0000000000001C
S31508001D700000000050C30000F22B0000EE02000035
S31508001D8050C300007616000077010000F5DA02005D
S31508001D90A41F000090010000E5BF000028230000F2
S31508001DA06B03000050C30000E62D0000D0070000BA
S31508001DB002000000C017530206140000802FA60474
S31508001DC005380000A00800000000580901040706AD
S31508001DD0100A01040707C80A00040807800B000454
S31508001DE00808380C000409086108000000008A0881
S31508001DF000000000C709010404032C0B01040404B5
S31508001E00920C010405040000100000002449920009
S31508001E10000000003C1D0008741D000800000000BA
S31508001E20000000000024F40040420F000101F80001
S31508001E30C224500300000000B01D00080000000086
S31508001E4000000000000000002B420F000000000008
S31508001E500000000000000000100000006666660032
S31508001E60000000003C1D0008801D0008000000005E
S31508001E70000000000048E80180841E000101F80007
S31508001E80F147500200000000B01D000800000000E5
S31508001E9000000000000000007B841E000000000017
S31508001EA00000000000000000100000001CC77100C0
S31508001EB000000000581D00088C1D000800000000E6
S31508001EC0000000000051250240420F000108F600FC
S31508001ED0F147100200000000B01D000800000000D5
S31508001EE000000000000000002A420F000000000069
S31508001EF00000000000000000100000001CC7710070
S31508001F0000000000581D0008981D00080000000089
S31508001F10000000000051250240420F000102F600B1
S31508001F20F147100200000000B01D00080000000084
S31508001F3000000000000000002A420F000000000018
S31508001F400000000000000000100000001CC771001F
S31508001F5000000000581D0008A41D0008000000002D
S31508001F60000000000051250240420F000108F6005B
S31508001F70F147100200000000B01D00080000000034
S31508001F8000000000000000002A420F0000000000C8
S31508001F9000000000000000000C4001000181010063
S31508001FA0204002000000000001000000304003004D
S31508001FB00000000000000000000000004040020091
S31508001FC00000000000400000604001000101000020
S31508001FD0A840010007000000BC4004000000000003
S31508001FE00000000000000000000000000C41030093
S31508001FF0FF4C0000FF4D0000FF4D000020C00110FF
S3150800200000F8070020C00130F502280124C00900A5
S3150800201000130000EC80B30343754051A00F00F88D
S3150800202000400000A8AA0700000000000000000009
S315080020300000000070C00900BA100000000420006B
S31508002040041880000B3C2001187C10022FFCE006C7
S315080020507F0000000000000000000000A8C0050086
S31508002060BD4B721511A3180510325476980A000054
S3150800207000000000CCC004000100000000000000C1
S3150800208001000A00010028000800010108070000F5
S3150800209018000101AAAAAA00200001010060DA00BE
S315080020A05C400201000000030000002078400401A3
S315080020B029417671000000008C000C000000000029
S315080020C0C4400401000000000000000000000000F9
S315080020D000000000E040010100020000104102017A
S315080020E0331E050000000000204107010000000023
S315080020F0FF0483078813C83AFF06660CFF048307A4
S315080021008813FF03BC200AF05841010100000000B3
S31508002110644101010C010000844105010101000030
S3150800212000000000000000000000000000000000A1
S31508002130A44102010000000000000000B0410201B5
S315080021400000000058923EC0BC4103010000000098
S3150800215000003C00699006002C420301601800400C
S3150800216000000000000000003C42010100000000E1
S3150800217044420201140000000000000080420201EF
S315080021800000000081000000984205013F0000029F
S31508002190FFFF0000FFFF0000FF030000FFFF000035
S315080021A0B44201010000000030430A01400020014A
S315080021B0A0000000085000011F1F1F1F1F1F1F1B24
S315080021C018151311100E0D0C45C1872F00000000BD
S315080021D00000000010800101030000003C8001019E
S315080021E0010000009C80010100000000B08002018F
S315080021F000030002370000019C000102000C0004E5
S31508002200D8000302050040AA88010000C0000000AB
S31508002210F00001022B0100001001011200FF0F005F
S3150800222010010132020000315001011200C0010004
S3150800223050010132C100A2007401010269F11B0CB0
S315080022407801011200001C00780101321004E0CF69
S3150800225080010112790700008001013202000000A6
S315080022608801010250000000FFFFFFFFFC4F010339
S31508002270081E000810400100014100003C40010012
S315080022800000000048400100A0070003504001007C
S31508002290000000005C400100000000000841010049
S315080022A0FF4C000054C00700511130000E0009E62B
S315080022B02D0000000405060708000000D1B602003C
S315080022C06435000040400701000050510000A0118D
S315080022D010000000000000861FC0810000000020DA
S315080022E0000000006440050100000040B904F80041
S315080022F040080000020000009200040088400F0118
S31508002300B7033B00000000E0000000000002050DD6
S315080023101C2F42536269686053402E1F110A080831
S315080023200808070605040303020202010101010168
S315080023300000000000000000000000001C41010130
S315080023400060B18C3C410601F6625200055B98407C
S315080023508E6E82941C784852893B4000C0030080E8
S315080023605C410101FFDD000068410701E853FA00FE
S31508002370000000400000000000000000000000000F
S315080023800000000000000000D0410301000000AA80
S31508002390D000000004001200E04113010000000014
S315080023A0FFAB000A5CF10F00D341020095EDB100C6
S315080023B0197BD80F1208B904EA1B6D1FC9B7C20AE0
S315080023C00B203B00430600005962F300727E96001C
S315080023D0A73D1900D022F13B000000A00000000034
S315080023E038000000000000004C4201010800030408
S315080023F0684201010100000038800101C224100072
S31508002400A080020170780300D0000000A8800111A6
S31508002410F0010000A88001310542CB01AC80011112
S31508002420F0010000AC800131053EFD00EC00011210
S31508002430E00F0000EC0001320C205151840101022A
S3150800244000100000FFFFFFFFFC4F0103581E0008A5
S3150800245010400100014100003C400100000000005E
S3150800246048400100A007000350400100000000009A
S315080024705C4001000000000008410100FF4C00001C
S3150800248054C00700512130000E000DE62A00000056
S315080024900405060708000000D1B602006005000022
S315080024A040400701000050510000A0211000000024
S315080024B0000000861FC08100000000200000000008
S315080024C064400501000000404902F0004008000091
S315080024D0020000009200080088400F01DA032A0073
S315080024E0000000E0000000000102071121374B5AE6
S315080024F067696254402915050000000001020304BB
S315080025000404030303030302020202020201010197
S3150800251000000000000000001C41010100B0B18C61
S315080025203C410601B6555200055B98408E6E829472
S31508002530233C4852893B4000C00300805C410101AE
S31508002540FFDD000068410701E853FA00000000407B
S31508002550000000000000000000000000000000006D
S3150800256000000000D04103010000AAAAD000000024
S3150800257004001200E041130100000000FFAB000A4E
S315080025805CF10F00D341020095EDB100197BD80F1D
S315080025901208B904EA1B6D1FC9B7C20A0B203B0013
S315080025A0430600005962F300727E9600A73D1900A3
S315080025B0D022F13B000000A000000000400000000F
S315080025C0000000004C4201010800030468420101B2
S315080025D00100000038800101F1471000A0800201C7
S315080025E070780300D5C00000A8800111F001000032
S315080025F0A88001310542CB01AC800111F001000031
S31508002600AC80013105228D00EC000112E00F0000BC
S31508002610EC0001320C205111840101020000000077
S31508002620FFFFFFFFFC4F0103A81E00081040010032
S31508002630004100003C400100100000004840010035
S315080026402007000350400100000400005C40010020
S315080026500D0F00000841010003C0010054C0070027
S31508002660511130000E000DE62A000000080B0C0D73
S315080026700D000000D1B602008005000040400701A9
S31508002680000020700000A011100000003000004675
S315080026901FC881000020003000800000644005014A
S315080026A000000000B904F80040080000100000000F
S315080026B092000A0088400F01B7031200000000606C
S315080026C0000000000002050D1C2F42536269686075
S315080026D053402E1F110A08080808070605040303B5
S315080026E002020201010101010000000000000000D1
S315080026F0000000001C41010100302C8C3C41060101
S3150800270049C0510001000040B756351200780850FC
S3150800271009084000C00300805C4101010000000078
S31508002720684107014CD4E83B04190D70080E141AC9
S3150800273020262C32383E10325476980A1D6940B449
S31508002740D041030100000000D00000000000020094
S31508002750E041130100000000E2CFDD2C7EB63A000E
S31508002760600919005122E2004CB9510E3982A904B8
S31508002770D8229B29E2CFDD2C7EB63A0060091900E3
S315080027805122E2004CB9510E3982A904D8229B295C
S315080027900000000000000000440000003C3C3C3CF7
S315080027A04C420101080000046842010100000000D3
S315080027B038800101F1471000A0800201703803003B
S315080027C0D0000000A8800111F0010000A8800131A6
S315080027D0055AFD01AC800111F0010000AC80013101
S315080027E0053EFD00EC000112E00F0000EC0001328E
S315080027F00C2051118401010200000000FFFFFFFFB9
S31508002800FC4F0103F81E00081040010000410000BB
S315080028103C4001001000000048400100201700035A
S3150800282050400100010400005C4001000D0F00004B
S315080028300841010003C0010054C0070051113000CF
S315080028400E000DE62A000000080B0C0D0D00000016
S31508002850D1B6020080050000404007010000207044
S315080028600000A01110000000300000461FC88100BB
S3150800287000200030008000006440050100000000D0
S31508002880B904F800400800001000000092000A0091
S3150800289088400F01B7031200000000600000000026
S315080028A00002050D1C2F42536269686053402E1FB3
S315080028B0110A0808080807060504030302020201AC
S315080028C001010101000000000000000000000000F6
S315080028D01C41010100302C8C3C41060149C05100C5
S315080028E001000040B7563512007808500908400024
S315080028F0C00300805C410101000000006841070137
S315080029004CD4E83B04190D700A10161C22282E34E4
S315080029103A4010325476980A1D6980A4D0410301C2
S3150800292000000000D000000000000200E041130192
S3150800293000000000E2CFDD2C7EB63A0060091900DF
S315080029405122E2004CB9510E3982A904D8229B299A
S31508002950E2CFDD2C7EB63A00600919005122E2006A
S315080029604CB9510E3982A904D8229B2900000000CF
S3150800297000000000440000003C3C3C3C4C42010185
S3150800298008000004684201010000000038800101C7
S31508002990F1471000A080020170380300D000000043
S315080029A0A8800111F0010000A8800131055AFD0137
S315080029B0AC800111F0010000AC800131053EFD003C
S315080029C0EC000112E00F0000EC0001320C2051115E
S315080029D08401010200000000FFFFFFFFFC4F010316
S315080029E0481F000810400100004100003C4001005B
S315080029F01000000048400100200700035040010075
S31508002A00000000005C4001000D0F000008410100B5
S31508002A10FF4C000054C00700511130000E000DE6AF
S31508002A202A000000080B0C0D0D000000D1B60200AC
S31508002A30E004000040400701000020700000A011DB
S31508002A4010000000000000461FC0810000000020A2
S31508002A50008000006440050100000000B904F80089
S31508002A6040080000100000009100040088400F0193
S31508002A70B703120000000060000000000002050D08
S31508002A801C2F42536269686053402E1F110A0808BA
S31508002A9008080706050403030202020101010101F1
S31508002AA00000000000000000000000001C410101B9
S31508002AB000302C8C3C41060149C05100055BA04002
S31508002AC08E6E82942182485209084000C00D00800B
S31508002AD05C410101FFDD0000684107014CD4E83B79
S31508002AE004190D50080E141A20262C32383E1032BE
S31508002AF05476980A1D0040B4D04103010000000036
S31508002B00D000000004001200E0411301000000801C
S31508002B10E2CFDD2C7EB63A00600919005122E200A8
S31508002B204CB9510E3982A904D8229B29E2CFDD2C53
S31508002B307EB63A00600919005122E2004CB9510EDE
S31508002B403982A904D8229B29000000000000000051
S31508002B50440000003C3C3C3C4C4201010800030494
S31508002B60684201010000000038800101F1471000A9
S31508002B70A080020170380300D0000000A88001116F
S31508002B80F0010000A8800131055AFD01AC80011151
S31508002B90F0010000AC800131053EFD00EC00011299
S31508002BA0E00F0000EC0001320C20511184010102F3
S31508002BB000000000FFFFFFFF6C220008809C2B8F9F
S31508002BC080841E00000000002600C5008C0D002031
S31508002BD00000000066FE0008000000006C220008E5
S31508002BE0809C2B8F80841E00000027002700AA00E7
S31508002BF08C0D00200000000066FE000800000000A2
S31508002C0048240008809C2B8F80841E00000000004A
S31508002C102700C5008C0D00200000000066FE000895
S31508002C200000000024260008809C2B8F80841E004C
S31508002C30000000002600C500940D002000000000DA
S31508002C4066FE00080000000024260008809C2B8FE2
S31508002C5080841E00000027002700BE00940D002077
S31508002C600000000066FE00080000000000280008BA
S31508002C70809C2B8F80841E00000000002600C50063
S31508002C80940D00200000000066FE00080000000009
S31508002C9000280008809C2B8F80841E0000002700D7
S31508002CA02700BE00940D00200000000066FE000804
S31508002CB000000000DC290008809C2B8F80841E0001
S31508002CC0000000002700C500940D00200000000049
S31508002CD066FE000800000000981F000800000000BB
S31508002CE0B82B00080200000006683521C0175302F9
S31508002CF0981F000800000000002C000801000000D2
S31508002D0076F76EA1C0175302981F0008000000004E
S31508002D10242C000802000000D86022F8C0175302CD
S31508002D20981F0008000000006C2C00080200000034
S31508002D30D62FB87EC0175302981F0008000000005F
S31508002D40B42C00080100000064D7269BC017530264
S31508002D5007690208136902084F2C01081559030868
S31508002D6095BB0008D72B0108572B0108F706010861
S31508002D7019220108D7270108372A0108BB2E01089E
S31508002D80732A01082F2A01084368020850004000E8
S31508002D9008005000240004009001500240009001F1
S31508002DA0AE011000A0030900A0060901A00509024A
S31508002DB0A0040903A0070904A0060905A00309063B
S31508002DC0A0070A00A0060A01A0070A02A0080A032B
S31508002DD0A0030A04A0010A056C888391AAF5A53800
S31508002DE060370BDB5A6083BE3F49F6D4A3C55F380C
S31508002DF074C9B3E3D2103F504AFF607BEB40B799E2
S31508002E005899B8A6CD3C1ABDE69D350E480103CCA7
S31508002E10DBFDF4AC1191F4EFB9A5F9E9A7832C5EB3
S31508002E202CBE97F2D203B0208BD28915D08E1C7493
S31508002E302430ED8FC24563765C15525ABF9A3263C9
S31508002E406DEB2A65499C80DCBF01FB9D4EF3BC36C1
S31508002E50D874F5394138684C0000010001000001BA
S31508002E600001020203000200000000000202010045
S31508002E700200000000000100010005010005020231
S31508002E800300020000000000020501000500000022
S31508002E90103E0000993B0000B13B0000B13B00002A
S31508002EA0B13B0000B13B0000B13B00000000000050
S31508002EB0000000000000000000000000B13B000018
S31508002EC0B13B0000B13B000011250000B13B0000FA
S31508002ED0FD3300000D3400004F350000B735000003
S31508002EE03B360000B9370000693600005938000043
S31508002EF0C93600001137000089370000DD390000A7
S31508002F00F13A0000D13300003D2200002D2C0000CC
S31508002F10B13B0000D9220000B13B0000D5230000D8
S31508002F2099230000B13B0000B13B000039240000A2
S31508002F30B13B0000B13B0000B13B0000B13B0000D3
S31508002F40B13B0000B13B0000B5110000A111000023
S31508002F5049488068000200D4704780B58020800206
S31508002F60AB490860CF2000F069FA01BDF8B5894879
S31508002F700068894C802292032260884E31680905D0
S31508002F801DD5110BA023034001D0216017E0024094
S31508002F903FD18027824A1760824A1760084038D096
S31508002FA0354D287A400705D501207F49086000027B
S31508002FB07E4908602878002801D0062801DB002011
S31508002FC0F2BD00F084FB716889684E682978052986
S31508002FD007D1B905A1606E60B668CC218901734A2C
S31508002FE0116000F07DFB012E00DA0226BC20800568
S31508002FF08849086094208005874908606848002148
S31508003000C94301647142416484490F6040210160EB
S31508003010D5E783480160FFF79BFF0120F2BD5D48B5
S315080030200168890504D5C06E0004000F022801D086
S31508003030002070470120704738B58024584804603E
S3150800304000F045FB05007748006800F075F9280090
S3150800305000F046FBFFF77CFF0748007A000705D516
S31508003060A0004D49086000F03EFC31BD60036C4984
S315080030700860B048046031BD103E0000FEB505008A
S31508003080CC20800168494860012668480660FFF739
S31508003090C6FF00287DD0664C2078002879D03102FA
S315080030A00195052802D02A460A4072D1CC27BF01CD
S315080030B05D4A1760914A126881231B02134001D0AA
S315080030C0032301E053075B0F022805D1022B5ED3C9
S315080030D0080136490860F7BD4D01032804D1022BC3
S315080030E055D932480560F7BD042802D111404ED0A3
S315080030F0F7BD05284BD10198002848D0C005C10F57
S31508003100684641700198C004C10F6846017000F016
S31508003110DEFA0290606869464978002903D0066895
S315080031208021204A11602C048A496A461278002AAE
S315080031300CD0C2680B68D21A874B1B68234001D093
S31508003140066800E04668964200DD16006846407844
S315080031506A461278024308D008684242B01E824284
S3150800316002DA7042886000E00026029800F0B8FA99
S315080031700198800501D59C4804600198054001D056
S31508003180A0480460002E02D008480760F7BDFFF784
S3150800319053FFF7BD440002A8442002A8B83E000029
S315080031A00CC001A890E001A8C4D000A8145001A83A
S315080031B038B580249448046001201C4908601C4DD9
S315080031C02878052802D0600090490860FFF727FF95
S315080031D0002812D013480068000A80214140A868D8
S315080031E0000EC9B2814208D2444800684007400F21
S315080031F0022802D2FFF720FF31BD85480168C022A8
S315080032000A4002D1C06F204001D00448046031BD95
S315080032101C1002A808E001A808D001A894D001A8AB
S31508003220441002A818C000A8106001A8C4E000A8AD
S31508003230103E0000F1B582B00F00A020384003D040
S3150800324080208000744956E000F041FA01907148E8
S315080032500468F80202D5A0680069029000F0B3FB82
S3150800326080210903606800F089F926780020761C19
S315080032706178B14200D200261821714365180C35D1
S3150800328029780829F3DA2670A5602978634A117027
S31508003290B9050FD500F01BFA5E4909688968C9683F
S315080032A0009100F01DFAF80203D400980321884320
S315080032B000900098594988600127384003D100F0EA
S315080032C07DFC01F0C7F8F904686900F057F93C205D
S315080032D000F0B4F8F0B200F0B1F860885049014047
S315080032E06180019800F0FCF938054B4908604D48A3
S315080032F0076038024C4908600298FEBD184001A8CC
S3150800330010B54A480068800501D4FE2010BDC020CB
S3150800331080034749086000F0DAF93E4909688A7867
S31508003320D20702D589688C7800E00C7800F0D8F9C5
S31508003330200010BD100002A8364909688A688B78F3
S31508003340DB0704D5927818235A438A180C32906002
S315080033507047000048C001A84C0002A8F1B582B029
S31508003360FB27BF013C680026200F000702D1E001B9
S3150800337002902BE001F06EF800F0A9F90190802187
S315080033800903606800F0FAF825786D1C6078A84291
S3150800339000D20025E80020180C300090009800683C
S315080033A00290802109030098406800F0E7F83D2064
S315080033B000F044F8E8B200F041F825700098A060E3
S315080033C0019800F08DF902A801F09EF819480068E6
S315080033D0800407D5F86901F07EFD02990818029065
S315080033E000D502960298FEBD4C1002A81248006845
S315080033F0002800D1704780B58021890500F0BEF805
S3150800340001BD00004C2002A894E001A8146001A8A0
S3150800341014C001A8BC3E0000442002A8103E0000CB
S31508003420FEFF0000C0E000A8106001A8440002A842
S31508003430441002A8FC0302A8EC3E000044490968AF
S31508003440002901D5434908607047F3B581B0424F5A
S31508003450B968424C4A004CD50125090100D52125F9
S3150800346001003F4A1068566822689206920E9446F2
S315080034703A68930080221340624613438022520022
S315080034801A4300920A0023D0890601D5012008E0D4
S31508003490F021014007D16946097A0C220A4002D078
S315080034A0022000F03FF82F49096809040AD539684F
S315080034B0090701D5022605E03968490301D5002622
S315080034C000E003264835009A27490968890003E081
S315080034D0009A2549896B09094023194011439A0026
S315080034E0002E02D016432666083521660243226658
S315080034F02566E06D4407640F00F0D3F8A0070BD0EB
S31508003500052C09D0B868000406D400F0E0F80221BA
S31508003510164A116000F0E4F800F0CCF8002000F03C
S3150800352001F8F7BD0E490A68F0239A4300011043D3
S315080035300860C0B270478020C0020D490968890733
S3150800354001D10C4900E00C490860704700000000F2
S31508003550500002A8884000A8480002A8284000A8F1
S31508003560683F0000684101A8184001A8D4D4035058
S31508003570844000A8486000A8485000A880B5654A5D
S31508003580116001F0D3FCFFF7D6FF01BDFEB5624D11
S315080035902878000604D5287F002801D0182400E0E2
S315080035A0462400F094F802905C48C0684005C20DB5
S315080035B0D52A01D2D52204E0D1204000824200D982
S315080035C0020010000100564B01932B6B5B011BD5C3
S315080035D0544B00931D1D544E367806277E43AA5336
S315080035E00025019B1B7CEB40DB070AD5009B0626C2
S315080035F06E439B199B888B4200D21900984200D2D1
S3150800360018006D1C022DECD309190904474B0B4011
S31508003610001BC005C00D184340490860C0200006BD
S31508003620434908603E48017D00290CD04149D52A06
S3150800363002D98023DB050B60D1235B009A4202D2B4
S3150800364080231B060B6000213B4B1960418800292B
S3150800365000D10280029800F043F800F03BFDF7BD68
S3150800366080B53648364908603648C1680902090AED
S3150800367019225143416005210160FFF787FF01BD0B
S3150800368080B525480178090604D5007F002801D0B1
S31508003690FFF77CFF2B480068C00301D5FFF776FFCC
S315080036A001BD8020C0021B49086027480068400702
S315080036B0FBD470478020C00224490860704701E0A7
S315080036C023490860234909680140F9D1704722480F
S315080036D000682021214A11601021214A1160704793
S315080036E03021014002D110201C49086070471A4851
S315080036F0006830210140102901D1012070470020BF
S315080037007047184801210160C160704701201649B9
S3150800371008607047441002A8B83E00007C4000507C
S31508003720743F0000383E0000343E00000000FF01F0
S31508003730A0600050A450005018E000E07F1A06016F
S31508003740540002A810E000E0440002A8442002A8A1
S31508003750282002A8280002A8600002A8602002A863
S31508003760601002A8789001A884A001A8FEB569484F
S3150800377080214902C1610221674A51600021674AD6
S31508003780D162674A11800321634A116002210160F0
S31508003790644EB068C005C10F684601701FD05F4807
S315080037A00068F0210905014090200005814216D0E5
S315080037B05D48006802245D4DC00703D55C4C0220B5
S315080037C0286004E0CC224021002001F011FE2C6480
S315080037D0012001F07FFE8020400056490860202025
S315080037E055490860802055490860CC208001544915
S315080037F0086001205349086034680F26200B3040C2
S31508003800019051480068C505ED0D103DC0202843BC
S31508003810C0B2FFF713FE68460078002806D0019864
S31508003820092803D001F08CFF01F0D4F92640474857
S315080038300468032E04D0022E06D10198032833D03B
S3150800384000F03EFA032E04D0019806282CD1062D46
S315080038502AD03F4800680127C00B384001D002F043
S315080038602DF93C480068000108D5052D06D101252B
S31508003870394807606805FFF722FF00E000252100A8
S31508003880019800F053FA0400344E002D05D000F0DC
S31508003890DFFB3760022032490860780570658009C9
S315080038A03049086001F03AFF1B488021490201624D
S315080038B00199002908D10221416000201749C863EF
S315080038C0C020C0001E4948642000FEBD80B5FFF731
S315080038D0E8FE25480078800602D4022023490860BD
S315080038E0FFF7E8FE01BD02202149086070478020E5
S315080038F000062049096801400AD0C10D1E4A1278FF
S31508003900920701D51D4A00E01D4A11601D4908604D
S31508003910704700002C1002A8282002A80C0002A854
S31508003920443E0000B00002A8FC0302A82C1102A81D
S3150800393002300000B82002A894E001A80CC001A833
S31508003940146001A8C4E000A804ED00E0B44000A893
S3150800395000E200E0E83E0000645000A8646000A8A9
S315080039602C4000A880E200E0B83E0000081002A83B
S31508003970082002A8440002A8683E0000FC1302A81A
S31508003980FC2302A8442002A888480068800700D4BF
S31508003990704770B5864801210422B24B0C02E02517
S315080039A0ED0086682E4002D01C601A611961006815
S315080039B0054002D01C609A60996070BDBD4801211F
S315080039C081600160704710B501207A498A68024013
S315080039D0FCD1B94A042313610C680440FCD19360F6
S315080039E00002106010BD744908680122104200D117
S315080039F0704710B5E023DB000340FF24A41CA34254
S31508003A0004D3B14B1B689B0600D54868024001D019
S31508003A1000F018F910BDFEB50700874E30683F2143
S31508003A2088438649097801433160FFF7DCFF8448FB
S31508003A30802149038C4C08258C4A1268D20504D586
S31508003A4025600322B262016006E0C822B26206223D
S31508003A50874B1A60874A116000978909C1600098E8
S31508003A600068854FB968814201D2019100E0019052
S31508003A700199401A009908600121009800F0C2FBDC
S31508003A800600009800680199401800990860FFF739
S31508003A907BFF8A4800683860300013D100206062D6
S31508003AA072480168C90501D410216162006828407E
S31508003AB001D0256000E0656084480068400001D5B3
S31508003AC0680260623000FEBD81480178090600D4AC
S31508003AD0704780B5007F00280AD07B484168C90630
S31508003AE006D40068A021014002D1042002F082F821
S31508003AF001BDF8B50400774D7748E860EE20C004AC
S31508003B002860764876490860FFF7DEFF754E802004
S31508003B10C0013060744F0820B865012169641F220E
S31508003B20BA62724A9B235B009361504B1B68DB06A3
S31508003B3002D56F4B3B6009E00F234C4F3F680740A7
S31508003B4002D01700103701E0170014373B60694BA5
S31508003B501B68002B00D49061E32000011060C02090
S31508003B60C000654B1B68F827FF011F4001D1D062D2
S31508003B7000E0A865306C014008D0706BC00705D41A
S31508003B805E480078800701D402F056F80020C0434A
S31508003B905B490860FFF7F8FE200001F089FC706BAE
S31508003BA08001FCD4706A57490860F1BD500002A82C
S31508003BB0900102A8940102A8783F000070B5444815
S31508003BC00178090606D5007F002803D000210520C4
S31508003BD002F010F8184801683F2291434A4A1278C1
S31508003BE00A430260494A01201063906297214900FE
S31508003BF01160102111604649E3231B018B66454B72
S31508003C00D3610022444B1A60030207240822174D89
S31508003C102E68164005D08C672C68234006D18A6723
S31508003C2004E0CC672C68234000D1CA6708600A63A1
S31508003C30C0032C49086070BD2C8001A8493E0000CD
S31508003C40981002A8F0210901344A1160014034484D
S31508003C500160202033490860AA4909680840AA4932
S31508003C6008607047881102A8601102A8FC0302A820
S31508003C700C9001A8982002A8A03F0000A348A449D8
S31508003C8082680A4002D1C268114001D01349016016
S31508003C90164808219F4A13680B4000D081611178A5
S31508003CA0C90602D58C210901016014209A490860C9
S31508003CB0CFE10000902102A8882102A8340002A8BA
S31508003CC00648074908607047440002A8EC0002A8A5
S31508003CD0B83E0000242102A8000FFF0001200000C2
S31508003CE0706201A8100002A8C01002A8501102A80C
S31508003CF0BD03000028C000A8A88001A8183E00003F
S31508003D00B46000A89C3F00004A3E0000682102A853
S31508003D10E82002A810100000C00002A8586001A8F8
S31508003D20585001A8482002A870470000F8B586B088
S31508003D3005000C0079480068400102D5200040249F
S31508003D4004437748C66AFFF7C2FC0590B00503D559
S31508003D5074480068FFF7F0FA002000900122700608
S31508003D60C00F01907048866800218160B82149001B
S31508003D706E4B19606308B82119400078F023034098
S31508003D80402B02D10800402101430D2D02D13000FD
S31508003D9004260643700704D50800142101431020A1
S31508003DA08443A648036820003400DB0506D5802333
S31508003DB05B009E4D2B600B0001211943A04D019B12
S31508003DC0002B11D10C230B40082B0DD00B00544EA1
S31508003DD0B66BF70601D41027BB43B60601D42026D6
S31508003DE0B343B1261E4042D0130042D0AB6DDB046C
S31508003DF0DB0C792B07D380210622494B1A604A022D
S31508003E00974B1A60002281230B4035D00823019E68
S31508003E10002E00D12B622600082434431023984331
S31508003E20042302931B058F4E33605B088E4E336066
S31508003E3013001ED0029B062B24D3384BDE6CF606E5
S31508003E4020D5304E3668360E00965B699BB22D4EED
S31508003E50F66B360603D01E0080235B0133432B61C5
S31508003E601B122B61754B1B68DE059ED40AE00822DF
S31508003E702A620390049132E08EA34E06F60E9B5DED
S31508003E800293D5E703900491029825490B6B1D4AC6
S31508003E9012682E686F46BE8028261E400643980C78
S31508003EA0C00130431E001B0E334010263340034327
S31508003EB0900040221040184301AA9070486B000AEF
S31508003EC001A9C870FFF71CFA01A908710098487182
S31508003ED066480068C8800198E8660298E86605980A
S31508003EE0FFF7FEFB08200399490601D55D4988605E
S31508003EF05F490860E1B20498C0B2FFF7A6FA0398D2
S31508003F0007B0F0BD184001A8481002A8704201A8E1
S31508003F1000800080F84F0000703F0000084000A8AD
S31508003F20180002A81CC000A8683F0000B46000A8DA
S31508003F30F8B5504F504C0F25012650495048806B14
S31508003F40C00621D5012008704E4800684E490A6807
S31508003F50824204D289695118491C081A00E0101ACD
S31508003F60216F401801285FDB01F09AFA4749096872
S31508003F70090B0D40022D55D17105454A11601021D6
S31508003F8039643F490E604DE03D48006CC00026D5B7
S31508003F9040480068E0218905014045D03B4C3E4831
S31508003FA00068C00504D42068000B28400228F5D014
S31508003FB03A480668FFF78BFB3949F2B20A603204C1
S31508003FC0120E0A603202120E0A60320E0A60FFF7FB
S31508003FD087FB2068000B28400228DFD0F1BD314856
S31508003FE00068002820D001220A7001F061FA002832
S31508003FF01AD101F055FA25490968090B0D40022D19
S3150800400010D102212278D20705D5274A12680A401C
S3150800401001D01B4A1660CA031D4B1A60396000217D
S31508004020204A116001F040FAF1BD00001C2100AAE7
S31508004030802080041D490860704700001C0100AA02
S31508004040540000AA80204004184908607047000000
S3150800405000BF17480168490701D0FF214161704731
S31508004060141100AA441002A84C5001A8448001A8C3
S31508004070845000A8082002A8683E00004C3E0000B4
S31508004080100002A81CC101A820C001A8B00002A8FF
S315080040901C1002A84C4001A8084000A8904000A89F
S315080040A0640000AA203E0000E83E00003C2002A86A
S315080040B00C4000A8030107060301070605010606CA
S315080040C00501060603020706030207060502060699
S315080040D0050206063D480068000219D53C480168F5
S315080040E0C902490F0BA2008ACA384009105C081891
S315080040F040B2082801DB401F02E0002800D5401D19
S3150800410034490A68344B1340000680111843086086
S315080041107047000002010000FFFEFD00FF2807D0DF
S31508004120032805D2C6490978C140C807C00F704799
S3150800413000207047F0B5802000020821274A116048
S315080041400A230121264A01249C40044327A5ED5C45
S3150800415025439560F025234E3560204D26A6F65C4E
S31508004160022737432F6004262E601F4D2D680D4009
S3150800417003D1956C2D03F8D401E00220F0BD956CAF
S31508004180D66C6D036D0BAE4200D220005B1EDAD5ED
S315080041900823144C23609060AA4B1B685B0112D558
S315080041A0A94C63785D1C01262E4066701D00062604
S315080041B0754365191268AA80E8802370A0480278BA
S315080041C09940114301700020F0BD0000500002A87C
S315080041D0643F0000F80302A8FFFFE3FF889001A8E8
S315080041E0448001A888A001A8140002A800000001C4
S315080041F00102040810202000505050404040403032
S3150800420020202000F1B582B0904C8027BF0490484A
S315080042104068C00515D5606AE021C9000840884293
S315080042200FD1A748006E0004000FA6494969394214
S3150800423001D1072803D0C90103D40B2801D10020D6
S31508004240FEBDFFF7BBFB9F484069400101D401252D
S315080042501CE09D48826B00207B49C3B206256B4350
S31508004260CB189B8895B2AB4204D0401CC3B2022B34
S31508004270F3D3FF200870012592484069400105D50F
S315080042800878FFF74BFF002800D000258F485021FB
S31508004290405C000608D58B480078002804D0894879
S315080042A04078002800D10125E06901906848006837
S315080042B0E061874E02980068316D40180090012829
S315080042C017DB00F0BCFD30600099C001081A012810
S315080042D00FDBFFF778FB00F0BDF802980068316D38
S315080042E0401801F0E5F8010003D00021029A116098
S315080042F010E0C020C00077490860206807282FD042
S3150800430005210840052808D021600C2001F0E2F8B4
S31508004310010002D00199E161FEBD6F4EFF207A309F
S3150800432070620420B062FFF74EFB02203060E02086
S31508004330C0046A4948606748476002210160012055
S3150800434001F0C8F8380C7062022001F0C3F8F80BC7
S3150800435070620820B062022001F0BCF80220B06248
S315080043605F4FE0204000F8615E4E58480078C0076D
S3150800437004D580200006306040083860042001F02B
S31508004380A9F86946087068460078002848D10220CE
S315080043905249086080027864C001786410204A494E
S315080043A008600120B86740274548006838401FD193
S315080043B044484069400113D5234800786946487047
S315080043C068464078FFF7AAFE002809D01E486946C5
S315080043D04978062251434018C0883B49086407E0DB
S315080043E0FFF7A8FE6946087068460078002817D1C6
S315080043F03548012101600021C167022001F06AF8F1
S31508004400F761B800F06131480078C00702D5C020CE
S3150800441000063060022001F05DF88120C002706459
S31508004420002D01D0FFF72CF9E069E021490301408E
S3150800443001982D4A02400A43E26168460078FEBDAB
S31508004440843F0000E83E0000343E00005C0102A8FC
S31508004450F80302A870B5FFF7B1FAFFF7B4FA234CD0
S3150800446023480068C00509D5E06F000B0F210F220D
S315080044700240072A23D001400B2920D002251248E2
S3150800448005601C4E0820B062C0017062012001F070
S3150800449021F82802706235600620B06216487062FC
S315080044A0E0204000154908600C4805600021144AC0
S315080044B01160C021C900016020681249086070BDFA
S315080044C0500002A8D43E00000C8001A8683E0000F7
S315080044D08C3F0000981002A85C1102A8982002A838
S315080044E0109001A810A001A8FFFFE3FF340002A85E
S315080044F0FC0302A85C2102A8F96100002CA001A80F
S315080045005C0102A8943F000070B52949C022D20078
S31508004510284B1B68F824E4011C4001D1CA6101E05C
S31508004520254B1A60254A80235B00254C25681D40CB
S3150800453003D008250D60032101E0AC2149009164F0
S3150800454021680B4001D10A21116006001D4880210F
S31508004550490301608909C1601B4C6069AF21C90123
S3150800456045183068854200D30500401B306000219D
S315080045703000FFF747FE3168491931601349096869
S31508004580216070BD802000011149086000011149B1
S315080045900860704710B50400FFF799F80E490A68D5
S315080045A00E4B13401C430C60FFF79AF810BD000031
S315080045B0601102A8AC8001A87C2102A80C8001A881
S315080045C0FC0302A8981002A8903F0000340002A835
S315080045D0441002A8685000A83040005AFFF8FFFFB0
S315080045E0F1B584B0E020C000FFF7D4FFAC480068FE
S315080045F00190AC4F386BAF21C90140180499884225
S3150800460005D2081A00F054FF002800D00DE2A64C87
S315080046106068C00700D508E20425A448C562A80357
S31508004620A3498862A348006D0090A06B8607B60F61
S315080046301020032E02D09D49C86221E042038A62F7
S31508004640E26B920601D5012056E0009A12060FD5B4
S31508004650E26B92070CD4984A05231360E36B184063
S3150800466002230343136000201060A06B000A106049
S31508004670CD62E06B002803D5E8038C4988620026E2
S31508004680A06B284004D0A06BC000A901084002E036
S31508004690B868C10701D5FFF7D5FA0098052101408A
S315080046A0052908D1BF48B1014018006AC004C00CEA
S315080046B0401EBD4908600021BC480268120403D5A3
S315080046C0806F002800D40121C0208000B84A5065B8
S315080046D03202784B1B78DB0703D5714B1B68DB0569
S315080046E001D5002901D0010000E01100D04B196066
S315080046F0AF4988655A600020216C942292050A40C9
S31508004700110000D001216A461170694609780143F3
S3150800471037D0C8480078C021014040290CD1FFF79E
S31508004720D5F8F86D019001A8FFF775F9002827D18B
S315080047300198FFF7DEF901E0FFF7D5F820202060A1
S315080047406846007800281BD0BB4EA06B284008D0CE
S315080047502803574988620220306000F085FA00284D
S3150800476006D05248C5626802514988620001306025
S3150800477050485021405C000602D568044B49086041
S3150800478053E1E8034A49C862FEF78BFF206C000430
S3150800479006D4FEF79CFF0221A84A1160FEF7A0FF87
S315080047A0FEF788FFA8022060C0200006B649C86048
S315080047B0A803B6490860A06B4007C10F6846017098
S315080047C00198C00700D4CAE000F06AFE0290FEF71E
S315080047D098FF206C40040DD400BF00BF00BF00BF87
S315080047E000BF00BF00BF00BF00BF00BF802000069B
S315080047F0A7490860FEF78AFF029800F055FEEE20EA
S31508004800C004A4490860A04869024162A24903227B
S315080048100A647F224A644222019BDB0501D40A60AE
S3150800482000E002600646A020B060082097490866A6
S315080048309A480560206CC00252D5994841680A0B0F
S315080048400F2313401A01D21A09090F250D405119D1
S315080048500F3901D1002200E04A1E00BF78A55B008F
S31508004860EB5A10293CD33988E72939D395256D00A9
S31508004870A94205D8691A09094B43990A4B4204E02B
S31508004880884D491909094B439B0A5BB2D218396B03
S31508004890FD6B6B43C9183963B32A0FD3B32210E0F3
S315080048A0FC0302A8743F0000100002A81C2002A8FE
S315080048B01C1002A8683E0000E40000AA0F2A00D2D5
S315080048C00F2279485043C00C7849744B1960411C33
S315080048D009030301C01A1018401C00010843B066FA
S315080048E06C4D7348A864C0208001F0606748714920
S315080048F0416771498167F020000168658020C00022
S31508004900B0610A2000F0E6FD82204002B066C420AD
S315080049100006F060C020400168490860012000F0E8
S31508004920D9FD0120F060062000F0D4FD80200002A9
S31508004930F060082000F0CEFD80204004F0604008BA
S31508004940F0604008F060C000F0604000A8640320F2
S3150800495000F0C0FD802040025049086004E0974AF4
S315080049604021002000F044FD0020C04310490860A3
S3150800497000F065FA401DC001396B46188020C00159
S315080049808F494D6F05408F4908600498864212D2B8
S31508004990396B401A00F08CFD00280BD08A48056058
S315080049A043E000BF0C0000AA204000A8684101A807
S315080049B0B46000A8049E85483349C860012000F009
S315080049C089FD606AF862802040003049086030003E
S315080049D000F06EFD7E4E68460078002806D17848BD
S315080049E0006870678020C0039D49086076480560A6
S315080049F0284802218164C02189018164606A78623D
S31508004A006846007800280AD0012000F063FD50208F
S31508004A10305C000603D58020000392490860206CAC
S31508004A20C00202D51E480068386305B0F0BD000014
S31508004A30085100A8E83E0000685000A8D4E40350D6
S31508004A4000000000000400080008010C011002180C
S31508004A50021C0324042C04300534000080B5C02051
S31508004A608000FFF797FDFEF732FE964900220A609E
S31508004A700A22CA61FEF734FE9348C0218902016002
S31508004A809249416001BD0000601102A8B81002A851
S31508004A9004500950242102A8600102A8C82102A8CE
S31508004AA0F83F0000D6FEFFFF89880000F0F00000FE
S31508004AB004040000020300000004FF00B05101A82E
S31508004AC08348806B800300D47047F8B58148006836
S31508004AD0009008278048076080480068C00403D40F
S31508004AE07F4800683840FBD07E4C38486065042013
S31508004AF000F0F0FC8820C004606501250098284075
S31508004B0028D0E805606580006065012000F0E2FCB9
S31508004B106565E80360654002606500F0C1FC050054
S31508004B20FEF7EFFD6A48006C40040DD400BF00BFD5
S31508004B3000BF00BF00BF00BF00BF00BF00BF00BF6F
S31508004B408020000668490860FEF7E0FD280000F0AE
S31508004B50ABFC03E0654A402100F04AFC644D0026A0
S31508004B600098C00501D52F6000E02E606E60C02059
S31508004B7000066065C00C5F490860012000F0AAFCC9
S31508004B80F0200001E0665C480099C90502D50321BA
S31508004B90016000E0066086204002584908605848CF
S31508004BA060652760A02020652E646E64B8024849B7
S31508004BB00860000153490860F1BD000006070000BF
S31508004BC020C001A894E001A894D001A802400000E2
S31508004BD0683E0000F8B54C4800680D2707400424D5
S31508004BE0002F00D104274948102566030821484AA2
S31508004BF0484B1B682340126814D04260394004D0E1
S31508004C000220FEF78FFC444806603C4007D0434824
S31508004C100068054341480560B0083F49086002201E
S31508004C203F4915E00260394005D00220FEF77AFCBC
S31508004C30A002394908603C4006D0384801680D434F
S31508004C4005607009344908603548066030032D4907
S31508004C500860FFF735FF00210020FEF7F6FBF1BDDF
S31508004C601C1002A81C2002A810B580202D490A682D
S31508004C7002400AD02C4B1A680624144005D15C6EF3
S31508004C802A4A22401B6D9C0101D5002010BD0968E7
S31508004C9008400DD02648824203D1180501D50120C7
S31508004CA010BD24480068C107C90F481E8041C00FBF
S31508004CB010BD214803210164A821C16310210160A8
S31508004CC070470000D80000AA442002A8040000800B
S31508004CD0100002A8FC0302A8106001A8D84001A889
S31508004CE0104001A8182102A804600950F60900001E
S31508004CF0600102A8B06101A8548001A8C82102A8D1
S31508004D0004340000482002A8B44000A8E03E000091
S31508004D101CC101A8480002A8441002A8683F000068
S31508004D20685000A8440002A814C001A81F1F00006C
S31508004D30010C000030C101A8082002A8010005D412
S31508004D400121C006C00E81406D48016070476D485C
S31508004D5000680121084209D16B4A12686B4B000CA6
S31508004D601840F03291400B40984201D0022070471B
S31508004D7000207047F8B507000F386A461080614C66
S31508004D80E0680A0004D16B461B8882B29A423AD27E
S31508004D9000226B461A80012502263A0013D02268A3
S31508004DA0324007D000292ED059480088401C58495F
S31508004DB0088000203900216156490E6080B2B84249
S31508004DC001D369460D805448456000E030BF20682D
S31508004DD0304003D1FFF7BBFF0028F7D04D484560A8
S31508004DE0390010D02168314005D049490A886B46F8
S31508004DF01B88D2180A80066000202061E068B84245
S31508004E0001D245480660FFF7A2FFF2BD38B5050096
S31508004E1000F046FB0400012199204543A8093F4AB2
S31508004E2012688018123880B2FFF7A4FF05000E201A
S31508004E30FFF784FF200000F037FB280032BD344816
S31508004E4003883649096802889342F9D1100408187C
S31508004E507047FEB51238070C6946088000F020FB3B
S31508004E600190284C2A4D2888B8421ADA01202C4984
S31508004E700860284E30BF02202168014006D0306005
S31508004E8040031F4908602888401C2880FFF75FFFF9
S31508004E90010002D12988B942ECDB012171600028A2
S31508004EA00DD12888B8420AD1E0686946098888423F
S31508004EB005D2002168460088FFF75CFF01E0FFF78E
S31508004EC046FF04008020C0010D490860019800F0E3
S31508004ED0EBFA2000FEBD10B512490A680F4B1B6895
S31508004EE00C689442FAD0DB014033141A02D288695E
S31508004EF02418641C0C4800684443181B10BD0000A5
S31508004F0080E200E0280002A804ED00E0FF3F000070
S31508004F10443E0000282002A8281002A8340002A84F
S31508004F202C1002A820C001A8B43F0000F0B502E08A
S31508004F300A601C602E607EC84F1C07D05F1C04D018
S31508004F406F1CF5D10A601C60F0BD0A60F0BD000058
S31508004F5010B5C20018231340FF249C40E24389077A
S31508004F60090E9940030004D473489B089B00C01897
S31508004F7006E0B94B0007000F0838800880001818AB
S31508004F8003681A401143016010BD10B500F088FA95
S31508004F906A4901220A606A4B6A4C23606A4C23609C
S31508004FA003236A4C23606A4C23606A4B1A606A4B77
S31508004FB01A606A4A80231360694B136011228A6358
S31508004FC000F072FA3F206749096801400A1D402A25
S31508004FD000D2081D934A1070AC48017010BD00F04D
S31508004FE05FFA05000024012160B2FFF7B1FF641CD7
S31508004FF00E2CF8D301210F20FFF7AAFF012111205B
S31508005000FFF7A6FF01211320FFF7A2FF01211720B2
S31508005010FFF79EFF03210120C043FFF799FF0121F7
S315080050201E20FFF795FF01211F20FFF791FF8B48F0
S315080050308B49086002209649086001209549086056
S315080050404704954C20683840FCD0FEF709FB280039
S3150800505000F02AFA91480068400311D4FF222E3244
S315080050605321002000F0C4F90AE000281CD0FEF7FE
S315080050702EFB19E020683840FCD0280000F014FA0E
S31508005080206D0004000F022801D1FEF751FF00F041
S3150800509007FA0500824EFEF72AFB00287078E4D04E
S315080050A0002801D1FEF71CFB012079493278002A35
S315080050B005D17C4A1268920600D4086030BF0022E7
S315080050C0327002220A6073490860D3E7764801689D
S315080050D042680A40754810401A490860800700D49B
S315080050E0704770B572480188491C0180714C207858
S315080050F0000620D570490A680F20120B0240032AC1
S3150800510019D16E4A12685207520F032A13D8096832
S31508005110090B084003280ED169480568082669481E
S3150800512006600D2000F0B6FB354001D0AC4806609D
S31508005130E08A401CE08270BD00E400E0040002A89A
S315080051400000FF3F282002A82C1002A840E002A871
S3150800515044C002A804C001A8044001A8145001A82C
S31508005160200060062C8001A8F0B581B08A48016845
S3150800517044680C409B4804608848204002D02000C0
S3150800518000F014FB8020044222D083498A6AF8235F
S31508005190DB0113401CD0C0221201934218D8802389
S315080051A01B06914D2B600F258F6AF826F6013E40A7
S315080051B08E4FFF6E3F0B2F40022F01D0032F03D1D6
S315080051C0002E01D09642EFD398490B6085490860B6
S315080051D09748007806280DDACC20800120401ED09A
S315080051E000F05EF905002000FDF748FF280000F0F2
S315080051F05BF914E07D480068800510D58D4820408D
S3150800520005D0FEF791FD2000FDF738FF07E0A00264
S3150800521005D580204001734908608749086001B0B8
S31508005220F0BD0000493E000010B584480168446896
S315080052300C408348046080210C4205D041608148B7
S3150800524001600020FDF71AFF600403D580204005A1
S315080052507D49086010BD00001CED00E0FFFF9BC003
S3150800526000E100E07948016840680840784908602C
S31508005270C00700D4704710B500F012F90400FDF716
S3150800528097FF200000F010F910BD00004A3E00000C
S31508005290602002A8601002A8600002A8F80702A809
S315080052A04C3E0000F40302A8280002A8FFFF00C035
S315080052B0443E0000B83E0000B00002A8184001A80D
S315080052C04C4000A84C6000A8FEB5624C206C676C88
S315080052D0074001252F4216D02E065F480660206833
S315080052E05E490D60002802D00021FEF747F95C48A8
S315080052F00068A021C90188428041C043C00F5949AE
S31508005300487059480660FEF7E2F901900220074006
S315080053103ED06168CEB20F0A54490822484B44036E
S31508005320012E24D0022E31D1012F22D1504EF679EA
S3150800533000964F4E37780126BE404E4F3E604C4E83
S315080053403678760590277F04F71903263E434A4F99
S315080053503E601C60494B1C600B68009C1B194B6522
S31508005360434909788D4046490D6046490DE000904D
S31508005370DFE7002F0AD1444E356000254D655C6095
S315080053801C60C104414B196041490A6033490860F1
S315080053900198FEF7A5F9F7BD104001A8020006001E
S315080053A070B5FEF794F9040000F07AF832490A68F5
S315080053B0D2070FD52D4A566D1368364D2E60CE6826
S315080053C0AE604968E9808021C904234E3160297B93
S315080053D05918516500F068F82000FEF781F970BD8C
S315080053E04C5000A8106001A8E06101A8440002A87A
S315080053F0002800D0704770B50C00FEF768F9050064
S3150800540000F04EF80600FEF77CF9234804600121F7
S31508005410224A1160026C0A40FCD1FEF777F9300087
S3150800542000F042F82800FEF75BF970BDE05101A8CC
S31508005430103E000000104006145001A890C001A8B4
S3150800544090E001A80CC001A804ED00E0C0C000A8C7
S31508005450C0E000A800C002A8441002A840E002A8C4
S31508005460404000A84C3E0000442002A818800A507C
S315080054705D3E000068A00A5060C101A894D001A84A
S3150800548068900A50F42302A860E101A880E200E0CF
S31508005490F41302A8583E00000080095040900950B5
S315080054A0EFF3108072B67047002800D162B67047D5
S315080054B010B5C409FFF7C3FC201A312806DAC00064
S315080054C0183801D4C01EFDD5002010BD2000FFF7F6
S315080054D0C0FC10BDC32148436F3801D41E38FDD522
S315080054E0002070470006800F7047A14909684143AC
S315080054F0880B7047914800680104C80F704730B59B
